H200020201203103937                                                                                                                                                                                                                                                                                                                                                                                                                                                                                                                                                                                                                                                                                                                                                                                                                                                                                                                                                                                                                                                                                                                                                                                                                                                                                                                                                                                                                                                                                                                                                                                                                                                                                                                                                                                                                                                                                                                                                                                                                                                            *
D08200190090000001000000 0005031220442548000503522800036593070000000000000742261500000000010000000312200211121900693808000010150000ARP000000000110100000 AR0000000000000004507990000000000009  0000000   00000I  000000000000000000000000 00000000000000 0000000000594300C1000900000000000000000000  0 0201203 000000000090  0E00VISA $                                        8                            00700090000000090       2033800000103937 004425480005035228   309345591331205  0000051200018955 201912111325310000000000002                N                                                         900900                          0000000                                     DS                                                                                                              510101554301                                                                                               00000000                                                                                                                                                                                                                                                                                                                                                                                                                                                                                                                                                                                                                            0000706010A03A00000                                00003369E54A1C198833D08100321912110000001101000032000000000000                  80800080001C00257D0C4A1E0300E0F8C8                                                                                                                                                                                                                                                                                                                                              *
D08200190090000001000000 0005031220489542100000000800036593070000000000000742261500000000010000000312200206042000066808000005180000ARP000000000040000000 AR0000000000000004507990000000000009  0000000   00000I C000000000000000000000000 00000000000000 0000000000594300C1000900000000000000000000  0 0201203 000000000090 80E00VISA $                                        2                            99800090000000090       2033800000103937 004895421000000008   300097671420780  0000054862018290 202004061539020000000000002                N                                                         900900                          0000000                                     DN                                                                                                              200101254101                                                                                             C 00000000                                                                                                                                                                                                                                                                                                                                                                                                                                                                                                                                                                                                                            000                                                  00                                              000000000000                                                                                                                                                                                                                                                                                                                                                                                                  *
D08200190090000001000000 0005031220489542100000000800036593070000000000000742261500000000010000000312200206042000066808000005180000ARP000000000040100000 AR0000000000000004507990000000000009  0000000   00000I B000000000000000000000000 00000000000000 0000000000594300C1000900000000000000000000  0 0201203 000000000090 80E00VISA $                                        2                            99800090000000090       2033800000103937 004895421000000008   300097671420780  0000054862018290 202004061539010000000000002                N                                                         900900                          0000000                                     DN                                                                                                              200101254101                                                                                             B 00040000                                                                                                                                                                                                                                                                                                                                                                                                                                                                                                                                                                                                                            000                                                  00                                              000000000000                                                                                                                                                                                                                                                                                                                                                                                                  *
D08200190001553801000000 0005031220455136294000001000175180690000000000001483475700000000010000000312201815052000327725000000920000ARP000000000001848000 AR0000000000000004546570000000000009  0000000   00000I  000000000000000000000000 00000000000000 0000000008822000C1060900000000000000000000  0 0201203 000000000090  0E00WWW.UCES.EDU.AR                               M                            00700001553800090       2033800000103937 004551362940000010   VI2033800000781  0000051200083201 202005151541070000000538018                S4551362940000010                                         900900                          0000000                                     DS                                                                                                              10018168C101                                                                                               00000000                                                                                                                                                                                                                                                                                                                                                                                                                                                                                                                                                                                                                                                                                                                                                                                                                                                                                                                                                                                                                                                                                                                                               *
D08200190001553801000000 0005031220489537001279268200175180690000000000001483475700000000010000000312201815052000027356000000890000ARP000000000002000000 AR0000000000000004546570000000000009  0000000   00000I  000000000000000000000000 00000000000000 0000000008822000C1060900000000000000000000  0 0201203 000000000090  0E00WWW.UCES.EDU.AR                               M                            00700001553800090       2033800000103937 004895370012792682   300136656017042  0000051200083201 202005151513190000000538018                S4895370012792682                                         900900                          0000000                                     DS                                                                                                              200181684101                                                                                               00000000                                                                                                                                                                                                                                                                                                                                                                                                                                                                                                                                                                                                                                                                                                                                                                                                                                                                                                                                                                                                                                                                                                                                               *
T00000005000000000194048                                                                                                                                                                                                                                                                                                                                                                                                                                                                                                                                                                                                                                                                                                                                                                                                                                                                                                                                                                                                                                                                                                                                                                                                                                                                                                                                                                                                                                                                                                                                                                                                                                                                                                                                                                                                                                                                                                                                                                                                                                                       *
H200020201203103936                                                                                                                                                                                                                                                                                                                                                                                                                                                                                                                                                                                                                                                                                                                                                                                                                                                                                                                                                                                                                                                                                                                                                                                                                                                                                                                                                                                                                                                                                                                                                                                                                                                                                                                                                                                                                                                                                                                                                                                                                                                            *
D08200190005901501000000 0005031220459354000383666500032556270000000000000952779100000002500312200312201804092000009753000010020000ARP0000000000297000000AR0000000000297004565830000000000009  0000000   00000I  000000000000000000003280 00000000000000 21122000004131  E9060900000000000000000000  0 0000   0000000000200  0100FLECHA BUS                                    2                            00700005901500200       20338000001039360004593540003836665   300248539475025CV0000054862018290 202009041159100000000015018                N                                                         900900                          0000000                                     DS                                                                                                              500101254101                                                                                               00000000                                                                                                                                                                                                                                                                                                                                                                                                                                                                                                                                                                                                                                                                                                                                                                                                                                                                                                                                                                                                                                                                                                                                               *
D08200190005901501000000 0005031220459354000383666500032556270000000000000952779100000002500312200312201804092000007620000009990000ARP0000000000292000000AR0000000000292004565830000000000009  0000000   00000I  000000000000000000003280 00000000000000 21122000004131  E9060900000000000000000000  0 0000   0000000000200  0100FLECHA BUS                                    2                            00700005901500200       20338000001039360004593540003836665   300248540375905CV0000054862018290 202009041158220000000015018                N                                                         900900                          0000000                                     DS                                                                                                              500101254101                                                                                               00000000                                                                                                                                                                                                                                                                                                                                                                                                                                                                                                                                                                                                                                                                                                                                                                                                                                                                                                                                                                                                                                                                                                                                               *
D08200190005901501000000 0005031220459354000383666500032556270000000000000952779100000002500312200312201804092000007509000010050000ARP0000000001692000000AR0000000001692004565830000000000009  0000000   00000I  000000000000000000003280 00000000000000 2112200000413106E9060900000000000000000000 E0 0000   0000000000200  0100FLECHA BUS                                    2                            00700005901500200E      20338000001039360004593540003836665   300248540766309CV0000054862018290 202009041201190000000015018                N                                                        7900900                          0000000                                     DS                                                                                                              500101254101                                                                                               00000000                                                                                                                                                                                                                                                                                                                                                                                                                                                                                                                                                                                                                                                                                                                                                                                                                                                                                                                                                                                                                                                                                                                                               *
D08200190005901501000000 0005031220402918736586751800032556270000000000000952779100000000010312200312201818092000071469000011030000ARP0000000000182610000AR0000000000182614565830000000000009  0000000   00000I  000000000000000000003280 00000000000000 21122000004131  E9060900000000000000000000  0 0000   0000000000200  0100FLECHA BUS                                    2                            45000005901500200       20338000001039360004029187365867518   300262727049495CV0000054862018290 202009181714340000000015018                N                                                         900900                          0000000                                     DS                                                                                                              200101254101                                                                                               00000000                                                                                                                                                                                                                                                                                                                                                                                                                                                                                                                                                                                                                                                                                                                                                                                                                                                                                                                                                                                                                                                                                                                                               *
D08200190005901501000000 0005031220459354000383666500032556270000000000000952779100000000010312200312201822092000006817000011700000ARP0000000000255220000AR0000000000255224565830000000000009  0000000   00000I  000000000000000000003280 00000000000000 2112200000413103E9060900000000000000000000 E0 0000   0000000000200  0100FLECHA BUS                                    2                            00700005901500200E      20338000001039360004593540003836665   300266543530607CV0000054862018290 202009221206030000000015018                N                                                         900900                          0000000                                     DS                                                                                                              500101254101                                                                                               00000000                                                                                                                                                                                                                                                                                                                                                                                                                                                                                                                                                                                                                                                                                                                                                                                                                                                                                                                                                                                                                                                                                                                                               *
D08200190005901501000000 0005031220459354000389666900032556270000000000000952779100000000010312200312201829092000082247000007750000ARP0000000000210010000AR0000000000210014565830000000000009  0000000   00000I  000000000000000000003280 00000000000000 21122000004131  E9060900000000000000000000  0 0000   0000000000200  0100FLECHA BUS                                    2                            00700005901500200       20338000001039360004593540003896669   309009648020001CV0000054862018290 202009291030520000000015018                N                                                         900900                          0000000                                     DS                                                                                                              200101254101                                                                                               00000000                                                                                                                                                                   V                                                                                                                                                                                                                                                                                                                                                                                                                                                                                                                                                                                                                                                                                                                                                                                                                                                                                                                                                                           *
D08200190005901501000000 0005031220459354000389666900032556270000000000000952779100000000010312200312201829092000009095000007760000ARP0000000000210010000AR0000000000210014565830000000000009  0000000   00000I  000000000000000000003280 00000000000000 21122000004131  E9060900000000000000000000  0 0000   0000000000200  0100FLECHA BUS                                    2                            00700005901500200       20338000001039360004593540003896669   300273544319082CV0000054862018290 202009291207090000000015018                N                                                         900900                          0000000                                     DS                                                                                                              200101254101                                                                                               00000000                                                                                                                                                                   V                                                                                                                                                                                                                                                                                                                                                                                                                                                                                                                                                                                                                                                                                                                                                                                                                                                                                                                                                                           *
D08200190005901501000000 0005031220459354000389666900032556270000000000000952779100000000010312200312201829092000857789000007850000ARP0000000000210010000AR0000000000210014565830000000000009  0000000   00000I  000000000000000000003280 00000000000000 21122000004131  E9060900000000000000000000  0 0000   0000000000200  0100FLECHA BUS                                    2                            00700005901500200       20338000001039360004593540003896669   309009648020001CV0000054862018290 202009291215180000000015018                N                                                         900900                          0000000                                     DS                                                                                                              200101254101                                                                                               00000000                                                                                                                                                                   V                                                                                                                                                                                                                                                                                                                                                                                                                                                                                                                                                                                                                                                                                                                                                                                                                                                                                                                                                                           *
D08200190005901501000000 0005031220459354000389666900032556270000000000000952779100000000010312200312201829092000039236000007870000ARP0000000000210030000AR0000000000210034565830000000000009  0000000   00000I  000000000000000000003280 00000000000000 2112200000413106E9060900000000000000000000 E0 0000   0000000000200  0100FLECHA BUS                                    2                            00700005901500200E      20338000001039360004593540003896669   309009648020001CV0000054862018290 202009291216180000000015018                N                                                         900900                          0000000                                     DS                                                                                                              200101254101                                                                                               00000000                                                                                                                                                                   V                                                                                                                                                                                                                                                                                                                                                                                                                                                                                                                                                                                                                                                                                                                                                                                                                                                                                                                                                                           *
D08200190005901501000000 0005031220459354000389666900032556270000000000000952779100000000010312200312201829092000074817000007920000ARP0000000000210080000AR0000000000210084565830000000000009  0000000   00000I  000000000000000000003280 00000000000000 2112200000413103E9060900000000000000000000 E0 0000   0000000000200  0100FLECHA BUS                                    2                            00700005901500200E      20338000001039360004593540003896669   309009648020001CV0000054862018290 202009291216190000000015018                N                                                         900900                          0000000                                     DS                                                                                                              200101254101                                                                                               00000000                                                                                                                                                                   V                                                                                                                                                                                                                                                                                                                                                                                                                                                                                                                                                                                                                                                                                                                                                                                                                                                                                                                                                                           *
D08200190005901501000000 0005031220459354000389666900032556270000000000000952779100000000010312200312201829092000681824000007950000ARP0000000000210030000AR0000000000210034565830000000000009  0000000   00000I  000000000000000000003280 00000000000000 2112200000413106E9060900000000000000000000 E0 0000   0000000000200  0100FLECHA BUS                                    2                            00700005901500200E      20338000001039360004593540003896669   309009648020001CV0000054862018290 202009291229370000000015018                N                                                         900900                          0000000                                     DS                                                                                                              200101254101                                                                                               00000000                                                                                                                                                                   V                                                                                                                                                                                                                                                                                                                                                                                                                                                                                                                                                                                                                                                                                                                                                                                                                                                                                                                                                                           *
D08200190005901501000000 0005031220459354000389666900032556270000000000000952779100000000010312200312201829092000332975000008000000ARP0000000000210080000AR0000000000210084565830000000000009  0000000   00000I  000000000000000000003280 00000000000000 2112200000413103E9060900000000000000000000 E0 0000   0000000000200  0100FLECHA BUS                                    2                            00700005901500200E      20338000001039360004593540003896669   309009648020001CV0000054862018290 202009291229370000000015018                N                                                         900900                          0000000                                     DS                                                                                                              200101254101                                                                                               00000000                                                                                                                                                                   V                                                                                                                                                                                                                                                                                                                                                                                                                                                                                                                                                                                                                                                                                                                                                                                                                                                                                                                                                                           *
D08200190005901501000000 0005031220459354000389666900032556270000000000000952779100000000010312200312201829092000016411000007780000ARP0000000000210030000AR0000000000210034565830000000000009  0000000   00000I  000000000000000000003280 00000000000000 2112200000413106E9060900000000000000000000 E0 0000   0000000000200  0100FLECHA BUS                                    2                            00700005901500200E      20338000001039360004593540003896669   300273546030362CV0000054862018290 202009291210030000000015018                N                                                         900900                          0000000                                     DS                                                                                                              200101254101                                                                                               00000000                                                                                                                                                                   V                                                                                                                                                                                                                                                                                                                                                                                                                                                                                                                                                                                                                                                                                                                                                                                                                                                                                                                                                                           *
D08200190090000001000000 0005031220459354000383666500036593070000000000000742261500000000010312200312200208042000091140000008290000ARP0000000000070000000AR0000000000070004507990000000000009  0000000   00000I  000000000000000000001036 00000000000000 07122000005943  C1000900000000000000000000  0 0000   0000000000200  0100VISA $                                        2                            00700090000000200       20338000001039360004593540003836665   300099515713494CV0000051200018990 202004081119300000000000002                N                                                         900900                          0000000                                     DS                                                                                                              200101254101                                                                                               00000000                                                                                                                                                                                                                                                                                                                                                                                                                                                                                                                                                                                                                                                                                                                                                                                                                                                                                                                                                                                                                                                                                                                                               *
D08200190090000001000000 0005031220459354000383666500036593070000000000000742261500000000010312200312200208042000087771000008350000ARP0000000000075000000AR0000000000075004507990000000000009  0000000   00000I  000000000000000000001036 00000000000000 07122000005943  C1000900000000000000000000  0 0000   0000000000200  0100VISA $                                        2                            00700090000000200       20338000001039360004593540003836665   300099584027126CV0000051200018990 202004081313210000000000002                N                                                         900900                          0000000                                     DS                                                                                                              200101254101                                                                                               00000000                                                                                                                                                                                                                                                                                                                                                                                                                                                                                                                                                                                                                                                                                                                                                                                                                                                                                                                                                                                                                                                                                                                                               *
D08200190090000001000000 0005031220459354000383666500036593070000000000000742261500000000010312200312200206042000039224000024250000ARP0000000000210000000AR0000000000210004507990000000000009  0000000   00000I  000000000000000000001036 00000000000000 07122000005943  C1000900000000000000000000  0 0000   0000000000200  0100VISA $                                        2                            00700090000000200       20338000001039360004593540003836665   300097576111129CV0000051200018990 202004061300100000000000002                N                                                         900900                          0000000                                     DS                                                                                                              200101254101                                                                                               00000000                                                                                                                                                                                                                                                                                                                                                                                                                                                                                                                                                                                                                                                                                                                                                                                                                                                                                                                                                                                                                                                                                                                                               *
D08200190090000001000000 0005031220489539000000001300036593070000000000000742261500000000010312200312200206042000072744000011330000ARP0000000000039530000AR0000000000039534507990000000000009  0000000   00000I  000000000000000000001036 00000000000000 07122000085943  C1000900000000000000000000  0 0000   0000000000200 80100VISA $                                        M                            99800090000000200       20338000001039360004895390000000013   300097582103381CV0000051200018901 202004061310090000000000002                S4895390000000013                                         900900                          0000000                                     DN                   N                                                                       00000000           500181684101                                                                                               00000000                                                                                                                                                                                                                                                                                                                                                                                                                                                                                                                                                                                                                            000                                                  00                                              000000000000                                                                                                                                                                                                                                                                                                                                                                                                  *
D08200190090000001000000 0005031220412322000000022200036593070000000000000742261500000000010312200312200215052000500978000000970000ARP0000000000015000000AR0000000000015004507990000000000009  0000000   00000I  000000000000000000001036 00000000000000 07122000005943  C1000900000000000000000000  0 0000   0000000000200 80100VISA $                                        E                            99800090000000200       20338000001039360004123220000000222   VI2033800000779CV0000051200083207 202005151600310000000000002                S4123220000000222                                         900900                          0000000                                     DN                                                                                                              M00101M54101                                                                                               00000000                                                                                                                                                                                                                                                                                                                                                                                                                                                                                                                                                                                                                            0000706010A03A0  00                                0000013273B5199981E30AAE00322005150000000015000032000000000000                  0000000000  000EB028161E0000606008                                                                                                                                                                                                                                                                                                                                              *
D08200190090000001000000 0005031220450980000061226800036593070000000000000742261500000000010312200312200203042000003452000005040000ARP0000000000299020000AR0000000000299024507990000000000009  0000000   00000I  000000000000000000001036 00000000000000 07122000005943  C1000900000000000000000000  0 0000   0000000000200  0100VISA $                                        2                            07200090000000200       20338000001039360004509800000612268   300094579889986CV0000054862018290 202004031306260000000000002                N                                                         900900                          0000000                                     DS                                                                                                              200101254101                                                                                               00000000                                                                                                                                                                                                                                                                                                                                                                                                                                                                                                                                                                                                                                                                                                                                                                                                                                                                                                                                                                                                                                                                                                                                               *
D08200190090000001000000 0005031220459354000383666500036593070000000000000742261500000000010312200312200208042000077771000005280000ARP0000000000299020000AR0000000000299024507990000000000009  0000000   00000I  000000000000000000001036 00000000000000 07122000005943  C1000900000000000000000000  0 0000   0000000000200  0100VISA $                                        2                            00700090000000200       20338000001039360004593540003836665   300099582876523CV0000054862018290 202004081311260000000000002                N                                                         900900                          0000000                                     DS                                                                                                              200101254101                                                                                               00000000                                                                                                                                                                                                                                                                                                                                                                                                                                                                                                                                                                                                                                                                                                                                                                                                                                                                                                                                                                                                                                                                                                                                               *
D08200190090000001000000 0005031220478204100000000000036593070000000000000742261500000000010312200312200203042000066838000004890000ARP0000000000299000000AR0000000000299004507990000000000009  0000000   00000I  000000000000000000001036 00000000000000 07122000005943  C1000900000000000000000000  0 0000   0000000000200 80100VISA $                                        2                            99800090000000200       20338000001039360004782041000000000   300094574317846CV0000054862018290 202004031257080000000000002                N                                                         900900                          0000000                                     DN                                                                                                              200101254101                                                                                               00000000                                                                                                                                                                                                                                                                                                                                                                                                                                                                                                                                                                                                                            000                                                  00                                              000000000000                                                                                                                                                                                                                                                                                                                                                                                                  *
D08200190090000001000000 0005031220478204100000000000036593070000000000000742261500000000010312200312200203042000052764000004900000ARP0000000000203000000AR0000000000203004507990000000000009  0000000   00000I  000000000000000000001036 00000000000000 0712200000594303C1000900000000000000000000 E0 0000   0000000000200 80100VISA $                                        2                            99800090000000200E      20338000001039360004782041000000000   300094574317847CV0000054862018290 202004031257080000000000002                N                                                         900900                          0000000                                     DN                                                                                                              200101254101                                                                                               00000000                                                                                                                                                                                                                                                                                                                                                                                                                                                                                                                                                                                                                            000                                                  00                                              000000000000                                                                                                                                                                                                                                                                                                                                                                                                  *
D08200190090000001000000 0005031220478204100000000000036593070000000000000742261500000000010312200312200203042000075140000004850000ARP0000000000103000000AR0000000000103004507990000000000009  0000000   00000I  000000000000000000001036 00000000000000 0712200000594303C1000900000000000000000000 E0 0000   0000000000200 80100VISA $                                        2                            99800090000000200E      20338000001039360004782041000000000   300094574287819CV0000054862018290 202004031257070000000000002                N                                                        7900900                          0000000                                     DN                                                                                                              200101254101                                                                                               00000000                                                                                                                                                                                                                                                                                                                                                                                                                                                                                                                                                                                                                            000                                                  00                                              000000000000                                                                                                                                                                                                                                                                                                                                                                                                  *
D08200190090000001000000 0005031220478204100000000000036593070000000000000742261500000000010312200312200203042000016877000004860000ARP0000000000106000000AR0000000000106004507990000000000009  0000000   00000I  000000000000000000001036 00000000000000 0712200000594306C1000900000000000000000000 E0 0000   0000000000200 80100VISA $                                        2                            99800090000000200E      20338000001039360004782041000000000   300094574297824CV0000054862018290 202004031257080000000000002                N                                                        7900900                          0000000                                     DN                                                                                                              200101254101                                                                                               00000000                                                                                                                                                                                                                                                                                                                                                                                                                                                                                                                                                                                                                            000                                                  00                                              000000000000                                                                                                                                                                                                                                                                                                                                                                                                  *
D08200190090000001000000 0005031220478204100000000000036593070000000000000742261500000000010312200312200203042000090306000004870000ARP0000000000112000000AR0000000000112004507990000000000009  0000000   00000I  000000000000000000001036 00000000000000 0712200000594312C1000900000000000000000000 E0 0000   0000000000200 80100VISA $                                        2                            99800090000000200E      20338000001039360004782041000000000   300094574297831CV0000054862018290 202004031257080000000000002                N                                                        7900900                          0000000                                     DN                                                                                                              200101254101                                                                                               00000000                                                                                                                                                                                                                                                                                                                                                                                                                                                                                                                                                                                                                            000                                                  00                                              000000000000                                                                                                                                                                                                                                                                                                                                                                                                  *
D08200190090000001000000 0005031220478204100000000000036593070000000000000742261500000000010312200312200203042000092277000004880000ARP0000000000118000000AR0000000000118004507990000000000009  0000000   00000I  000000000000000000001036 00000000000000 0712200000594318C1000900000000000000000000 E0 0000   0000000000200 80100VISA $                                        2                            99800090000000200E      20338000001039360004782041000000000   300094574307841CV0000054862018290 202004031257080000000000002                N                                                        7900900                          0000000                                     DN                                                                                                              200101254101                                                                                               00000000                                                                                                                                                                                                                                                                                                                                                                                                                                                                                                                                                                                                                            000                                                  00                                              000000000000                                                                                                                                                                                                                                                                                                                                                                                                  *
D08200190090000001000000 0005031220450980000061226800036593070000000000000742261500000000010312200312200203042000003912000004970000ARP0000000000103020000AR0000000000103024507990000000000009  0000000   00000I  000000000000000000001036 00000000000000 0712200000594303C1000900000000000000000000 E0 0000   0000000000200  0100VISA $                                        2                            07200090000000200E      20338000001039360004509800000612268   300094575608706CV0000054862018290 202004031259190000000000002                N                                                        7900900                          0000000                                     DS                                                                                                              200101254101                                                                                               00000000                                                                                                                                                                                                                                                                                                                                                                                                                                                                                                                                                                                                                                                                                                                                                                                                                                                                                                                                                                                                                                                                                                                                               *
D08200190090000001000000 0005031220450980000061226800036593070000000000000742261500000000010312200312200203042000003677000004980000ARP0000000000106020000AR0000000000106024507990000000000009  0000000   00000I  000000000000000000001036 00000000000000 0712200000594306C1000900000000000000000000 E0 0000   0000000000200  0100VISA $                                        2                            07200090000000200E      20338000001039360004509800000612268   300094575648714CV0000054862018290 202004031259200000000000002                N                                                        7900900                          0000000                                     DS                                                                                                              200101254101                                                                                               00000000                                                                                                                                                                                                                                                                                                                                                                                                                                                                                                                                                                                                                                                                                                                                                                                                                                                                                                                                                                                                                                                                                                                                               *
D08200190090000001000000 0005031220450980000061226800036593070000000000000742261500000000010312200312200203042000003387000004990000ARP0000000000112020000AR0000000000112024507990000000000009  0000000   00000I  000000000000000000001036 00000000000000 0712200000594312C1000900000000000000000000 E0 0000   0000000000200  0100VISA $                                        2                            07200090000000200E      20338000001039360004509800000612268   300094575688728CV0000054862018290 202004031259200000000000002                N                                                        7900900                          0000000                                     DS                                                                                                              200101254101                                                                                               00000000                                                                                                                                                                                                                                                                                                                                                                                                                                                                                                                                                                                                                                                                                                                                                                                                                                                                                                                                                                                                                                                                                                                                               *
D08200190090000001000000 0005031220450980000061226800036593070000000000000742261500000000010312200312200203042000003254000005000000ARP0000000000118020000AR0000000000118024507990000000000009  0000000   00000I  000000000000000000001036 00000000000000 0712200000594318C1000900000000000000000000 E0 0000   0000000000200  0100VISA $                                        2                            07200090000000200E      20338000001039360004509800000612268   300094575728733CV0000054862018290 202004031259200000000000002                N                                                        7900900                          0000000                                     DS                                                                                                              200101254101                                                                                               00000000                                                                                                                                                                                                                                                                                                                                                                                                                                                                                                                                                                                                                                                                                                                                                                                                                                                                                                                                                                                                                                                                                                                                               *
D08200190090000001000000 0005031220450980000061226800036593070000000000000742261500000000010312200312200203042000003143000005010000ARP0000000000203020000AR0000000000203024507990000000000009  0000000   00000I  000000000000000000001036 00000000000000 0712200000594303C1000900000000000000000000 E0 0000   0000000000200  0100VISA $                                        2                            07200090000000200E      20338000001039360004509800000612268   300094575758741CV0000054862018290 202004031259200000000000002                N                                                         900900                          0000000                                     DS                                                                                                              200101254101                                                                                               00000000                                                                                                                                                                                                                                                                                                                                                                                                                                                                                                                                                                                                                                                                                                                                                                                                                                                                                                                                                                                                                                                                                                                                               *
D08200190001553801000000 0005031220489537001279268200175180690000000000001483475700000000010312200312201808042000015542000083110000ARP0000000000030000000AR0000000000030004546570000000000009  0000000   00000I  000000000000000000001057 00000000000000 21122000088220  C1060900000000000000000000  0 0000   0000000000100 80100WWW.UCES.EDU.AR                               M                            99800001553800100       20338000001039364004895370012792682   300099548390995CV0000059600077801 202004081213580000000538018                S4895370012792682                                         900900                          0000000                                     DN                                                                                                              100181684101                                                                                               00000000                                                                                                                                                                                                                                                                                                                                                                                                                                                                                                                                                                                                                            000                                                  00                                              000000000000                                                                                                                                                                                                                                                                                                                                                                                                  *
D08200190001553801000000 0005031220489539000000001300175180690000000000001483475700000000010312200312201806042000080144000083110000ARP0000000000020000000AR0000000000020004546570000000000009  0000000   00000I  000000000000000000001057 00000000000000 21122000078220  C1060900000000000000000000  0 0000   0000000000100 80100WWW.UCES.EDU.AR                               M                            99800001553800100       20338000001039364004895390000000013   300097670150082CV0000059600077801 202004061536540000000538018                S4895390000000013                                         900900                          0000000                                     DN                                                                                                              200171684101                                                                                               00000000                                                                                                                                                                                                                                                                                                                                                                                                                                                                                                                                                                                                                            000                                                  00                                              000000000000                                                                                                                                                                                                                                                                                                                                                                                                  *
D08200190001553801000000 0005031220489537001279268200175180690000000000001483475700000000010312200312201808042000025542000083110000ARP0000000000020000000AR0000000000020004546570000000000009  0000000   00000I  000000000000000000001057 00000000000000 21122000088220  C1060900000000000000000000  0 0000   0000000000100 80100WWW.UCES.EDU.AR                               M                            99800001553800100       20338000001039364004895370012792682   300099571923043CV0000059600077801 202004081253100000000538018                S4895370012792682                                         900900                          0000000                                     DN                                                                                                              200181684101                                                                                               00000000                                                                                                                                                                                                                                                                                                                                                                                                                                                                                                                                                                                                                            000                                                  00                                              000000000000                                                                                                                                                                                                                                                                                                                                                                                                  *
D08200190001596601000000 0005031220459354000383666500178656680000000000002116034200000000010312200312201822092000007875000011680000ARP0000000000255500000AR0000000000255504546570000000000009  0000000   00000I  000000000000000000002600 00000000000000 2112200000594106S1332900000000000000000000 E0 0000   0000000000200  0100SPORT MARKET                                  2                            00700001596600200E      20338000001039360004593540003836665   300266542560181CV0000054862018290 202009221204420000000966018                N                                                        7900900                          0000000                                     DS                                                                                                              500101254101                                                                                               00000000                                                                                                                                                                                                                                                                                                                                                                                                                                                                                                                                                                                                                                                                                                                                                                                                                                                                                                                                                                                                                                                                                                                                               *
D08200190001596601000000 0005031220459354000389666900178656680000000000002116034200000000010312200312201829092000357714000007960000ARP0000000000210040000AR0000000000210044546570000000000009  0000000   00000I  000000000000000000002600 00000000000000 2112200000594103S1332900000000000000000000 E0 0000   0000000000200  0100SPORT MARKET                                  2                            00700001596600200E      20338000001039360004593540003896669   309009648020001CV0000054862018290 202009291229370000000966018                N                                                        7900900                          0000000                                     DS                                                                                                              200101254101                                                                                               00000000                                                                                                                                                                   V                                                                                                                                                                                                                                                                                                                                                                                                                                                                                                                                                                                                                                                                                                                                                                                                                                                                                                                                                                           *
D08200190001596601000000 0005031220459354000389666900178656680000000000002116034200000000010312200312201829092000339619000007970000ARP0000000000210050000AR0000000000210054546570000000000009  0000000   00000I  000000000000000000002600 00000000000000 2112200000594106S1332900000000000000000000 E0 0000   0000000000200  0100SPORT MARKET                                  2                            00700001596600200E      20338000001039360004593540003896669   309009648020001CV0000054862018290 202009291229370000000966018                N                                                        7900900                          0000000                                     DS                                                                                                              200101254101                                                                                               00000000                                                                                                                                                                   V                                                                                                                                                                                                                                                                                                                                                                                                                                                                                                                                                                                                                                                                                                                                                                                                                                                                                                                                                                           *
D08200190001596601000000 0005031220459354000389666900178656680000000000002116034200000000010312200312201829092000742136000007980000ARP0000000000210060000AR0000000000210064546570000000000009  0000000   00000I  000000000000000000002600 00000000000000 2112200000594112S1332900000000000000000000 E0 0000   0000000000200  0100SPORT MARKET                                  2                            00700001596600200E      20338000001039360004593540003896669   309009648020001CV0000054862018290 202009291229370000000966018                N                                                        7900900                          0000000                                     DS                                                                                                              200101254101                                                                                               00000000                                                                                                                                                                   V                                                                                                                                                                                                                                                                                                                                                                                                                                                                                                                                                                                                                                                                                                                                                                                                                                                                                                                                                                           *
D08200190001596601000000 0005031220459354000389666900178656680000000000002116034200000000010312200312201829092000758802000007990000ARP0000000000210070000AR0000000000210074546570000000000009  0000000   00000I  000000000000000000002600 00000000000000 2112200000594118S1332900000000000000000000 E0 0000   0000000000200  0100SPORT MARKET                                  2                            00700001596600200E      20338000001039360004593540003896669   309009648020001CV0000054862018290 202009291229370000000966018                N                                                        7900900                          0000000                                     DS                                                                                                              200101254101                                                                                               00000000                                                                                                                                                                   V                                                                                                                                                                                                                                                                                                                                                                                                                                                                                                                                                                                                                                                                                                                                                                                                                                                                                                                                                                           *
D08200190003403001000000 0005031220451717726000002500326662080000000000002634549600000000010312200312201815052000096953000000940000ARP0000000000015000000AR0000000000015004508320000000000009  0000000   00000I  000000000000000000001430 00000000000000 21122000008999  C1000900000000000000000000  0 0000   0000000000200  0100MI POSNET                                     E                            01700003403000200       20338000001039360004517177260000025   VI2033800000780CV0000051200083207 202005151549070000000030018                S4517177260000025                                         900900                          0000000                                     DS                                                                                                              M00101M54101                                                                                               00000000                                                                                                                                                                                                                                                                                                                                                                                                                                                                                                                                                                                                                            0000706010A03A0  00                                00000129C207BD593C431C8700322005150000000015000032000000000000                  0000000000  0034B4A4D71E0000606008                                                                                                                                                                                                                                                                                                                                              *
D08200190003403001000000 0005031220459354000383665700326662080000000000002634549600000002500312200312201804092000005925000000240000ARP0000000000228000000AR0000000000228004508320000000000009  0000000   00000I  000000000000000000001430 00000000000000 21122000088999  C1000900000000000000000000  0 0000   0000000000200  0100MI POSNET                                     M                            00700003403000200       20338000001039360004593540003836657   300248620321509CV0000051200093601 202009041413500000000030018                N                                                         900900                          0000000                                     DS         13                                                                                                   200181684101                                                                                               00000000                                                                                                                                                                                                                                                                                                                                                                                                                                                                                                                                                                                                                                                                                                                                                                                                                                                                                                                                                                                                                                                                                                                                               *
