H200020201026160201                                                                                                                                                                                                                                                                                                                                                                                                                                                                                                                                                                                                                                                                                                                                                                                                                                                                                                                                                                                                                                                                                                                                                                                                                                                                                                                                                                                                                                                                                                                                                                                                                                                                                                                                                                                                                                                                                                                                                                                                                                                            *
D08200190001553801000000 0005261020455136294000001000175180690000000000001483475700000000010000002610201815052000327725000000920000ARP000000000001848000 AR0000000000000004546570000000000009  0000000   00000I  000000000000000000000000 00000000000000 0000000008822000C1060900000000000000000000  0 0201026 000000000090  0E00WWW.UCES.EDU.AR                               M                            00700001553800090       2030000000160201 004551362940000010   VI2030000000789  0000051200083201 202005151541070000000538018                S4551362940000010                                         900900                          0000000                                     DS                                                                                                              10018168C101                                                                                               00000000                                                                                                                                                                                                                                                                                                                                                                                                                                                                                                                                                                                                                                                                                                                                                                                                                                                                                                                                                                                                                                                                                                                                               *
D08200190001553801000000 0005261020489537001279268200175180690000000000001483475700000000010000002610201815052000027356000000890000ARP000000000002000000 AR0000000000000004546570000000000009  0000000   00000I  000000000000000000000000 00000000000000 0000000008822000C1060900000000000000000000  0 0201026 000000000090  0E00WWW.UCES.EDU.AR                               M                            00700001553800090       2030000000160201 004895370012792682   300136656017042  0000051200083201 202005151513190000000538018                S4895370012792682                                         900900                          0000000                                     DS                                                                                                              200181684101                                                                                               00000000                                                                                                                                                                                                                                                                                                                                                                                                                                                                                                                                                                                                                                                                                                                                                                                                                                                                                                                                                                                                                                                                                                                                               *
T00000002000000000003848                                                                                                                                                                                                                                                                                                                                                                                                                                                                                                                                                                                                                                                                                                                                                                                                                                                                                                                                                                                                                                                                                                                                                                                                                                                                                                                                                                                                                                                                                                                                                                                                                                                                                                                                                                                                                                                                                                                                                                                                                                                       *
H200020201026160201                                                                                                                                                                                                                                                                                                                                                                                                                                                                                                                                                                                                                                                                                                                                                                                                                                                                                                                                                                                                                                                                                                                                                                                                                                                                                                                                                                                                                                                                                                                                                                                                                                                                                                                                                                                                                                                                                                                                                                                                                                                            *
D08200190005901501000000 0005261020459354000383666500032556270000000000000952779100000000012610202610201822092000006817000011700000ARP0000000000255220000AR0000000000255224565830000000000009  0000000   00000I  000000000000000000003280 00000000000000 1311200000413103E9060900000000000000000000 E0 0000   0000000000200  0100FLECHA BUS                                    2                            00700005901500200E      20300000001602010004593540003836665   300266543530607CV0000054862018290 202009221206030000000015018                N                                                         900900                          0000000                                     DS                                                                                                              500101254101                                                                                               00000000                                                                                                                                                                                                                                                                                                                                                                                                                                                                                                                                                                                                                                                                                                                                                                                                                                                                                                                                                                                                                                                                                                                                               *
D08200190090000001000000 0005261020459354000383666500036593070000000000000742261500000000012610202610200208042000091140000008290000ARP0000000000070000000AR0000000000070004507990000000000009  0000000   00000I  000000000000000000001036 00000000000000 28102000005943  C1000900000000000000000000  0 0000   0000000000200  0100VISA $                                        2                            00700090000000200       20300000001602010004593540003836665   300099515713494CV0000051200018990 202004081119300000000000002                N                                                         900900                          0000000                                     DS                                                                                                              200101254101                                                                                               00000000                                                                                                                                                                                                                                                                                                                                                                                                                                                                                                                                                                                                                                                                                                                                                                                                                                                                                                                                                                                                                                                                                                                                               *
D08200190090000001000000 0005261020459354000383666500036593070000000000000742261500000000012610202610200208042000087771000008350000ARP0000000000075000000AR0000000000075004507990000000000009  0000000   00000I  000000000000000000001036 00000000000000 28102000005943  C1000900000000000000000000  0 0000   0000000000200  0100VISA $                                        2                            00700090000000200       20300000001602010004593540003836665   300099584027126CV0000051200018990 202004081313210000000000002                N                                                         900900                          0000000                                     DS                                                                                                              200101254101                                                                                               00000000                                                                                                                                                                                                                                                                                                                                                                                                                                                                                                                                                                                                                                                                                                                                                                                                                                                                                                                                                                                                                                                                                                                                               *
D08200190090000001000000 0005261020412322000000022200036593070000000000000742261500000000012610202610200215052000500978000000970000ARP0000000000015000000AR0000000000015004507990000000000009  0000000   00000I  000000000000000000001036 00000000000000 28102000005943  C1000900000000000000000000  0 0000   0000000000200 80100VISA $                                        E                            99800090000000200       20300000001602010004123220000000222   VI2030000000787CV0000051200083207 202005151600310000000000002                S4123220000000222                                         900900                          0000000                                     DN                                                                                                              M00101M54101                                                                                               00000000                                                                                                                                                                                                                                                                                                                                                                                                                                                                                                                                                                                                                            0000706010A03A0  00                                0000013273B5199981E30AAE00322005150000000015000032000000000000                  0000000000  000EB028161E0000606008                                                                                                                                                                                                                                                                                                                                              *
D08200190090000001000000 0005261020450980000061226800036593070000000000000742261500000000012610202610200203042000003452000005040000ARP0000000000299020000AR0000000000299024507990000000000009  0000000   00000I  000000000000000000001036 00000000000000 28102000005943  C1000900000000000000000000  0 0000   0000000000200  0100VISA $                                        2                            07200090000000200       20300000001602010004509800000612268   300094579889986CV0000054862018290 202004031306260000000000002                N                                                         900900                          0000000                                     DS                                                                                                              200101254101                                                                                               00000000                                                                                                                                                                                                                                                                                                                                                                                                                                                                                                                                                                                                                                                                                                                                                                                                                                                                                                                                                                                                                                                                                                                                               *
D08200190090000001000000 0005261020478204100000000000036593070000000000000742261500000000012610202610200203042000066838000004890000ARP0000000000299000000AR0000000000299004507990000000000009  0000000   00000I  000000000000000000001036 00000000000000 28102000005943  C1000900000000000000000000  0 0000   0000000000200 80100VISA $                                        2                            99800090000000200       20300000001602010004782041000000000   300094574317846CV0000054862018290 202004031257080000000000002                N                                                         900900                          0000000                                     DN                                                                                                              200101254101                                                                                               00000000                                                                                                                                                                                                                                                                                                                                                                                                                                                                                                                                                                                                                            000                                                  00                                              000000000000                                                                                                                                                                                                                                                                                                                                                                                                  *
D08200190090000001000000 0005261020478204100000000000036593070000000000000742261500000000012610202610200203042000052764000004900000ARP0000000000203000000AR0000000000203004507990000000000009  0000000   00000I  000000000000000000001036 00000000000000 2810200000594303C1000900000000000000000000 E0 0000   0000000000200 80100VISA $                                        2                            99800090000000200E      20300000001602010004782041000000000   300094574317847CV0000054862018290 202004031257080000000000002                N                                                         900900                          0000000                                     DN                                                                                                              200101254101                                                                                               00000000                                                                                                                                                                                                                                                                                                                                                                                                                                                                                                                                                                                                                            000                                                  00                                              000000000000                                                                                                                                                                                                                                                                                                                                                                                                  *
D08200190090000001000000 0005261020478204100000000000036593070000000000000742261500000000012610202610200203042000075140000004850000ARP0000000000103000000AR0000000000103004507990000000000009  0000000   00000I  000000000000000000001036 00000000000000 2810200000594303C1000900000000000000000000 E0 0000   0000000000200 80100VISA $                                        2                            99800090000000200E      20300000001602010004782041000000000   300094574287819CV0000054862018290 202004031257070000000000002                N                                                        7900900                          0000000                                     DN                                                                                                              200101254101                                                                                               00000000                                                                                                                                                                                                                                                                                                                                                                                                                                                                                                                                                                                                                            000                                                  00                                              000000000000                                                                                                                                                                                                                                                                                                                                                                                                  *
D08200190090000001000000 0005261020478204100000000000036593070000000000000742261500000000012610202610200203042000016877000004860000ARP0000000000106000000AR0000000000106004507990000000000009  0000000   00000I  000000000000000000001036 00000000000000 2810200000594306C1000900000000000000000000 E0 0000   0000000000200 80100VISA $                                        2                            99800090000000200E      20300000001602010004782041000000000   300094574297824CV0000054862018290 202004031257080000000000002                N                                                        7900900                          0000000                                     DN                                                                                                              200101254101                                                                                               00000000                                                                                                                                                                                                                                                                                                                                                                                                                                                                                                                                                                                                                            000                                                  00                                              000000000000                                                                                                                                                                                                                                                                                                                                                                                                  *
D08200190090000001000000 0005261020478204100000000000036593070000000000000742261500000000012610202610200203042000090306000004870000ARP0000000000112000000AR0000000000112004507990000000000009  0000000   00000I  000000000000000000001036 00000000000000 2810200000594312C1000900000000000000000000 E0 0000   0000000000200 80100VISA $                                        2                            99800090000000200E      20300000001602010004782041000000000   300094574297831CV0000054862018290 202004031257080000000000002                N                                                        7900900                          0000000                                     DN                                                                                                              200101254101                                                                                               00000000                                                                                                                                                                                                                                                                                                                                                                                                                                                                                                                                                                                                                            000                                                  00                                              000000000000                                                                                                                                                                                                                                                                                                                                                                                                  *
D08200190090000001000000 0005261020478204100000000000036593070000000000000742261500000000012610202610200203042000092277000004880000ARP0000000000118000000AR0000000000118004507990000000000009  0000000   00000I  000000000000000000001036 00000000000000 2810200000594318C1000900000000000000000000 E0 0000   0000000000200 80100VISA $                                        2                            99800090000000200E      20300000001602010004782041000000000   300094574307841CV0000054862018290 202004031257080000000000002                N                                                        7900900                          0000000                                     DN                                                                                                              200101254101                                                                                               00000000                                                                                                                                                                                                                                                                                                                                                                                                                                                                                                                                                                                                                            000                                                  00                                              000000000000                                                                                                                                                                                                                                                                                                                                                                                                  *
D08200190090000001000000 0005261020450980000061226800036593070000000000000742261500000000012610202610200203042000003912000004970000ARP0000000000103020000AR0000000000103024507990000000000009  0000000   00000I  000000000000000000001036 00000000000000 2810200000594303C1000900000000000000000000 E0 0000   0000000000200  0100VISA $                                        2                            07200090000000200E      20300000001602010004509800000612268   300094575608706CV0000054862018290 202004031259190000000000002                N                                                        7900900                          0000000                                     DS                                                                                                              200101254101                                                                                               00000000                                                                                                                                                                                                                                                                                                                                                                                                                                                                                                                                                                                                                                                                                                                                                                                                                                                                                                                                                                                                                                                                                                                                               *
D08200190090000001000000 0005261020450980000061226800036593070000000000000742261500000000012610202610200203042000003677000004980000ARP0000000000106020000AR0000000000106024507990000000000009  0000000   00000I  000000000000000000001036 00000000000000 2810200000594306C1000900000000000000000000 E0 0000   0000000000200  0100VISA $                                        2                            07200090000000200E      20300000001602010004509800000612268   300094575648714CV0000054862018290 202004031259200000000000002                N                                                        7900900                          0000000                                     DS                                                                                                              200101254101                                                                                               00000000                                                                                                                                                                                                                                                                                                                                                                                                                                                                                                                                                                                                                                                                                                                                                                                                                                                                                                                                                                                                                                                                                                                                               *
D08200190090000001000000 0005261020450980000061226800036593070000000000000742261500000000012610202610200203042000003387000004990000ARP0000000000112020000AR0000000000112024507990000000000009  0000000   00000I  000000000000000000001036 00000000000000 2810200000594312C1000900000000000000000000 E0 0000   0000000000200  0100VISA $                                        2                            07200090000000200E      20300000001602010004509800000612268   300094575688728CV0000054862018290 202004031259200000000000002                N                                                        7900900                          0000000                                     DS                                                                                                              200101254101                                                                                               00000000                                                                                                                                                                                                                                                                                                                                                                                                                                                                                                                                                                                                                                                                                                                                                                                                                                                                                                                                                                                                                                                                                                                                               *
D08200190090000001000000 0005261020450980000061226800036593070000000000000742261500000000012610202610200203042000003254000005000000ARP0000000000118020000AR0000000000118024507990000000000009  0000000   00000I  000000000000000000001036 00000000000000 2810200000594318C1000900000000000000000000 E0 0000   0000000000200  0100VISA $                                        2                            07200090000000200E      20300000001602010004509800000612268   300094575728733CV0000054862018290 202004031259200000000000002                N                                                        7900900                          0000000                                     DS                                                                                                              200101254101                                                                                               00000000                                                                                                                                                                                                                                                                                                                                                                                                                                                                                                                                                                                                                                                                                                                                                                                                                                                                                                                                                                                                                                                                                                                                               *
D08200190090000001000000 0005261020450980000061226800036593070000000000000742261500000000012610202610200203042000003143000005010000ARP0000000000203020000AR0000000000203024507990000000000009  0000000   00000I  000000000000000000001036 00000000000000 2810200000594303C1000900000000000000000000 E0 0000   0000000000200  0100VISA $                                        2                            07200090000000200E      20300000001602010004509800000612268   300094575758741CV0000054862018290 202004031259200000000000002                N                                                         900900                          0000000                                     DS                                                                                                              200101254101                                                                                               00000000                                                                                                                                                                                                                                                                                                                                                                                                                                                                                                                                                                                                                                                                                                                                                                                                                                                                                                                                                                                                                                                                                                                                               *
D08200190090000001000000 0005261020459354000383666500036593070000000000000742261500000000012610202610200208042000077771000005280000ARP0000000000299020000AR0000000000299024507990000000000009  0000000   00000I  000000000000000000001036 00000000000000 28102000005943  C1000900000000000000000000  0 0000   0000000000200  0100VISA $                                        2                            00700090000000200       20300000001602010004593540003836665   300099582876523CV0000054862018290 202004081311260000000000002                N                                                         900900                          0000000                                     DS                                                                                                              200101254101                                                                                               00000000                                                                                                                                                                                                                                                                                                                                                                                                                                                                                                                                                                                                                                                                                                                                                                                                                                                                                                                                                                                                                                                                                                                                               *
D08200190001553801000000 0005261020489537001279268200175180690000000000001483475700000000012610202610201808042000015542000083110000ARP0000000000030000000AR0000000000030004546570000000000009  0000000   00000I  000000000000000000001057 00000000000000 13112000088220  C1060900000000000000000000  0 0000   0000000000100 80100WWW.UCES.EDU.AR                               M                            99800001553800100       20300000001602014004895370012792682   300099548390995CV0000059600077801 202004081213580000000538018                S4895370012792682                                         900900                          0000000                                     DN                                                                                                              100181684101                                                                                               00000000                                                                                                                                                                                                                                                                                                                                                                                                                                                                                                                                                                                                                            000                                                  00                                              000000000000                                                                                                                                                                                                                                                                                                                                                                                                  *
D08200190001553801000000 0005261020489539000000001300175180690000000000001483475700000000012610202610201803042000066838000083110000ARP0000000000020000000AR0000000000020004546570000000000009  0000000   00000I  000000000000000000001057 00000000000000 13112000078220  C1060900000000000000000000  0 0000   0000000000100 80100WWW.UCES.EDU.AR                               M                            99800001553800100       20300000001602014004895390000000013   300094558061904CV0000059600077801 202004031230040000000538018                S4895390000000013                                         900900                          0000000                                     DN                                                                                                              200171684101                                                                                               00000000                                                                                                                                                                                                                                                                                                                                                                                                                                                                                                                                                                                                                            000                                                  00                                              000000000000                                                                                                                                                                                                                                                                                                                                                                                                  *
D08200190001553801000000 0005261020489537001279268200175180690000000000001483475700000000012610202610201808042000025542000083110000ARP0000000000020000000AR0000000000020004546570000000000009  0000000   00000I  000000000000000000001057 00000000000000 13112000088220  C1060900000000000000000000  0 0000   0000000000100 80100WWW.UCES.EDU.AR                               M                            99800001553800100       20300000001602014004895370012792682   300099571923043CV0000059600077801 202004081253100000000538018                S4895370012792682                                         900900                          0000000                                     DN                                                                                                              200181684101                                                                                               00000000                                                                                                                                                                                                                                                                                                                                                                                                                                                                                                                                                                                                                            000                                                  00                                              000000000000                                                                                                                                                                                                                                                                                                                                                                                                  *
D08200190001596601000000 0005261020459354000383666500178656680000000000002116034200000000012610202610201822092000007875000011680000ARP0000000000255500000AR0000000000255504546570000000000009  0000000   00000I  000000000000000000002600 00000000000000 1311200000594106S1332900000000000000000000 E0 0000   0000000000200  0100SPORT MARKET                                  2                            00700001596600200E      20300000001602010004593540003836665   300266542560181CV0000054862018290 202009221204420000000966018                N                                                        7900900                          0000000                                     DS                                                                                                              500101254101                                                                                               00000000                                                                                                                                                                                                                                                                                                                                                                                                                                                                                                                                                                                                                                                                                                                                                                                                                                                                                                                                                                                                                                                                                                                                               *
D08200190003403001000000 0005261020451717726000002500326662080000000000002634549600000000012610202610201815052000096953000000940000ARP0000000000015000000AR0000000000015004508320000000000009  0000000   00000I  000000000000000000001430 00000000000000 13112000008999  C1000900000000000000000000  0 0000   0000000000200  0100MI POSNET                                     E                            01700003403000200       20300000001602010004517177260000025   VI2030000000788CV0000051200083207 202005151549070000000030018                S4517177260000025                                         900900                          0000000                                     DS                                                                                                              M00101M54101                                                                                               00000000                                                                                                                                                                                                                                                                                                                                                                                                                                                                                                                                                                                                                            0000706010A03A0  00                                00000129C207BD593C431C8700322005150000000015000032000000000000                  0000000000  0034B4A4D71E0000606008                                                                                                                                                                                                                                                                                                                                              *
D08200190090000001000000 0005261020459354000383666500351723520000000000002959589500000000012610202610201822092000006818000011720301ARP0000000000251330000AR0000000000753994507990000000000009  0000000STD00000I  000000000000000000001000 00000000000000 13112000005651  C1000900000000000000000000  0 0000   0000000000200  0100PRUEBAS SWITCHING 2                           2                            00700090000000200       20300000001602010004593540003836665   300266543960783CV0000054862018290 202009221206410000000000018                N                                                         900900                          0000000                                     DS                                                                                                              500101254101                                                                                               00000000                                                                                                                                                                                                                                                                                                                                                                                                                                                                                                                                                                                                                                                                                                                                                                                                                                                                                                                                                                                                                                                                                                                                               *
D08200190001730101000000 0005261020451717726000002500607321200000000000002958979700000000012610202610201818052000003636000001230000ARP0000000000017000000AR0000000000017004540750000000000009  0000000   00000I  000000000000000000001406 00000000000000 1311200000581206C1000900000000000000000000 E0 0000   0000000000200  0100HELADERIA GRIDO PRUEBA FF                     E                            01700001730100200E      20300000001602010004517177260000025   300139571124070CV0000051200083207 202005181251510000000301018                S4517177260000025                                         900900                          0000000                                     DS                                                                                                              M00101M54101                                                                                               00000000                                                                                                                                                                                                                                                                                                                                                                                                                                                                                                                                                                                                                            0000706010A03A0  00                                00000161E2FF0A4201865C0D00322005180000000017000032000000000000                  0000000000  002C2AEF081E0000606008                                                                                                                                                                                                                                                                                                                                              *
D08200190001730101000000 0005261020451717726000002500607321200000000000002958979700000000012610202610201818052000005868000001240000ARP0000000000027000000AR0000000000027004540750000000000009  0000000   00000I  000000000000000000001406 00000000000000 1311200000581206C1000900000000000000000000 E0 0000   0000000000200  0100HELADERIA GRIDO PRUEBA FF                     E                            01700001730100200E      20300000001602010004517177260000025   300139571344092CV0000051200083207 202005181252140000000301018                S4517177260000025                                         900900                          0000000                                     DS                                                                                                              M00101M54101                                                                                               00000000                                                                                                                                                                                                                                                                                                                                                                                                                                                                                                                                                                                                                            0000706010A03A0  00                                00000162A98ACCC6A2161F2F00322005180000000027000032000000000000                  0000000000  0027A724901E0000606008                                                                                                                                                                                                                                                                                                                                              *
D08200190005901501000000 0005051020459354000389666900032556270000000000000952779100000000010510200510201802102000907042000008360000ARP0000000000210010000AR0000000000210014565830000000000009  0000000   00000I  000000000000000000003280 00000000000000 23102000004131  E9060900000000000000000000  0 0000   0000000000200  0100FLECHA BUS                                    2                            00700005901500200       20279000001546590004593540003896669   309009648020001CV0000054862018290 202010021331500000000015018                N                                                         900900                          0000000                                     DS                                                                                                              200101254101                                                                                               00000000                                                                                                                                                                   V                                                                                                                                                                                                                                                                                                                                                                                                                                                                                                                                                                                                                                                                                                                                                                                                                                                                                                                                                                           *
D08200190005901501000000 0005051020459354000389666900032556270000000000000952779100000000010510200510201802102000235762000008370000ARP0000000000210010000AR0000000000210014565830000000000009  0000000   00000I  000000000000000000003280 00000000000000 23102000004131  E9060900000000000000000000  0 0000   0000000000200  0100FLECHA BUS                                    2                            00700005901500200       20279000001546590004593540003896669   309009648020001CV0000054862018290 202010021338450000000015018                N                                                         900900                          0000000                                     DS                                                                                                              200101254101                                                                                               00000000                                                                                                                                                                   2                                                                                                                                                                                                                                                                                                                                                                                                                                                                                                                                                                                                                                                                                                                                                                                                                                                                                                                                                                           *
D08200190005901501000000 0005051020459354000389666900032556270000000000000952779100000000010510200510201802102000125870000008380000ARP0000000000210010000AR0000000000210014565830000000000009  0000000   00000I  000000000000000000003280 00000000000000 23102000004131  E9060900000000000000000000  0 0000   0000000000200  0100FLECHA BUS                                    2                            00700005901500200       20279000001546590004593540003896669   309009648020001CV0000054862018290 202010021339500000000015018                N                                                         900900                          0000000                                     DS                                                                                                              200101254101                                                                                               00000000                                                                                                                                                                   0                                                                                                                                                                                                                                                                                                                                                                                                                                                                                                                                                                                                                                                                                                                                                                                                                                                                                                                                                                           *
T00000025000000000323219                                                                                                                                                                                                                                                                                                                                                                                                                                                                                                                                                                                                                                                                                                                                                                                                                                                                                                                                                                                                                                                                                                                                                                                                                                                                                                                                                                                                                                                                                                                                                                                                                                                                                                                                                                                                                                                                                                                                                                                                                                                       *
                                                                                                                                                                                                                                                                                                                                                                                                                                                                                                                                                                                                                                                                                                                                                                                                                                                                                                                                                                                                                                                                                                                                                                                                                                                                                                                                                                                                                                                                                                                                                                                                                                                                                                                                                                                                                                                                                                                                                                                                                                                      *
