H200020210519173542                                                                                                                                                                                                                                                                                                                                                                                                                                                                                                                                                                                                                                                                                                                                                                                                                                                                                                                                                                                                                                                                                                                                                                                                                                                                                                                                                                                                                                                                                                                                                                                                                                                                                                                                                                                                                                                                                                                                                                                                                                                            *
D08200190007274501000000 0005190521503396198990916600003234360000000000000026974300000000701905211905211822042100003433000005590000ARP000000000004444ARP0AR0000000000044442308450000000000009  0000000   00000I  000000000000000000001708 00000000000000 070621000N5641  B2315000000000000000000000  0 0000   0000000000180 40E00MICKEY                                        2                            00000007274500180       21139000001735420005033961989909166   MS0000008531042CV0000051200092090 202104221556010000000745018                                                                          100900                          0000000                                     DS                                                                                                              100101B93101                                                                                               00000000                                                                                                                                                                                                                       217    kOJLtQa+Iws8AREAEbjsA1MAAAAA2f38e6948-5388-41a6-bca4b49723c194372                                                                                                                                                                                                                                                                                                                          POI                                                                                                                                                                                                                                                                                                                                                                                                                                                                                                                   *
D08200190007274501000000 0005190521520491021000000900003234360000000000000026974300000000701905211905211822042100006380000005580000ARP000000000004444ARP0AR0000000000044442308450000000000009  0000000   00000I  000000000000000000001708 00000000000000 070621000N5641  B2315000000000000000000000  0 0000   0000000000180 40100MICKEY                                        2                            00000007274500180       21139000001735420005204910210000009   MCC0111150422  CV0000051200092090 202104221539490000000745018                                                                          100900                          0000000                                     DS                                                                                                              100101B93101                                                                                               00000000                                                                                                                                                                                                                       217    kOJLtQa+Iws8AREAEbjsA1MAAAAA2f38e6948-5388-41a6-bca4b49723c194372                                                                                                                                                                                                                                                                                                                          POI                                                                                                                                                                                                                                                                                                                                                                                                                                                                                                                   *
D08200190001747601000000 0005190521503396198990916600469953200000000000003057529900000000701905211905211822042100003425000024330000ARP000000000003500ARP0AR0000000000035002308450000000000009  0000000   00000I  000000000000000000004400 00000000000000 070621000N5651  A8090000000000000000000000  0 0000   0000000000180 40E00CUMBRES                                       2                            00000001747600180       21139000001735420005033961989909166   MS0000008523042CV0000051200092001 202104221549270000000476018                                                                          100900                          0000000                                     DS                                                                                                              B00051S93101                                                                                               00000000                                                                                                                                                                                                                       210    hJJLtQa+Iws8AREAEbjsA1MAAAAA1f38e6948-5388-41a6-bca4b49723c194372                                                                                                                                                                                                                                                                                                                       210CT6                                                                                                                                                                                                                                                                                                                                                                                                                                                                                                                   *
D08200190001747601000000 0005190521503396198990916600469953200000000000003057529900000000701905211905211822042100003426000024340000ARP000000000003500ARP0AR0000000000035002308450000000000009  0000000   00000I  000000000000000000004400 00000000000000 070621000N5651  A8090000000000000000000000  0 0000   0000000000180 40E00CUMBRES                                       2                            00000001747600180       21139000001735420005033961989909166   MS0000008524042CV0000051200092001 202104221550130000000476018                                                                          100900                          0000000                                     DS                                                                                                              B00051S93101                                                                                               00000000                                                                                                                                                                                                                       211    hJJLtQa+Iws8AREAEbjsA1MAAAAA1f38e6948-5388-41a6-bca4b49723c194372                                                                                                                                                                                                                                                                                                                       211CT6                                                                                                                                                                                                                                                                                                                                                                                                                                                                                                                   *
D08200190001747601000000 0005190521503396198990916600469953200000000000003057529900000000701905211905211822042100003427000024350000ARP000000000003500ARP0AR0000000000035002308450000000000009  0000000   00000I  000000000000000000004400 00000000000000 070621000N5651  A8090000000000000000000000  0 0000   0000000000180 40E00CUMBRES                                       2                            00000001747600180       21139000001735420005033961989909166   MS0000008525042CV0000051200092001 202104221550580000000476018                                                                          100900                          0000000                                     DS                                                                                                              B00051S93101                                                                                               00000000                                                                                                                                                                                                                       212    jJJLtQa+Iws8AREAEbjsA1MAAAAA1f38e6948-5388-41a6-bca4b49723c194372                                                                                                                                                                                                                                                                                                                       212CT6                                                                                                                                                                                                                                                                                                                                                                                                                                                                                                                   *
D08200190001747601000000 0005190521503396198990916600469953200000000000003057529900000000701905211905211822042100003428000024360000ARP000000000003500ARP0AR0000000000035002308450000000000009  0000000   00000I  000000000000000000004400 00000000000000 070621000N5651  A8090000000000000000000000  0 0000   0000000000180 40E00CUMBRES                                       2                            00000001747600180       21139000001735420005033961989909166   MS0000008526042CV0000051200092001 202104221551440000000476018                                                                          100900                          0000000                                     DS                                                                                                              B00051S93101                                                                                               00000000                                                                                                                                                                                                                       211    kEJLtQa+Iws8AREAEbjsA1MAAAAA2f38e6948-5388-41a6-bca4b49723c194372                                                                                                                                                                                                                                                                                                                       211CT6                                                                                                                                                                                                                                                                                                                                                                                                                                                                                                                   *
D08200190001747601000000 0005190521503396198990916600469953200000000000003057529900000000701905211905211822042100003429000024370000ARP000000000003500ARP0AR0000000000035002308450000000000009  0000000   00000I  000000000000000000004400 00000000000000 070621000N5651  A8090000000000000000000000  0 0000   0000000000180 40E00CUMBRES                                       2                            00000001747600180       21139000001735420005033961989909166   MS0000008527042CV0000051200092001 202104221552310000000476018                                                                          100900                          0000000                                     DS                                                                                                              B00051S93101                                                                                               00000000                                                                                                                                                                                                                       212    kAJLtQa+Iws8AREAEbjsA1MAAAAA2f38e6948-5388-41a6-bca4b49723c194372                                                                                                                                                                                                                                                                                                                       212CT6                                                                                                                                                                                                                                                                                                                                                                                                                                                                                                                   *
D08200190001747601000000 0005190521503396198990916600469953200000000000003057529900000000701905211905211822042100003430000024380000ARP000000000003500ARP0AR0000000000035002308450000000000009  0000000   00000I  000000000000000000004400 00000000000000 070621000N5651  A8090000000000000000000000  0 0000   0000000000180 40E00CUMBRES                                       2                            00000001747600180       21139000001735420005033961989909166   MS0000008528042CV0000051200092001 202104221553140000000476018                                                                          100900                          0000000                                     DS                                                                                                              B00051S93101                                                                                               00000000                                                                                                                                                                                                                       214    jJJLtQa+Iws8AREAEbjsA1MAAAAA2f38e6948-5388-41a6-bca4b49723c194372                                                                                                                                                                                                                                                                                                                       214CT6                                                                                                                                                                                                                                                                                                                                                                                                                                                                                                                   *
D08200190001747601000000 0005190521503396198990916600469953200000000000003057529900000000701905211905211822042100003431000024390000ARP000000000003500ARP0AR0000000000035002308450000000000009  0000000   00000I  000000000000000000004400 00000000000000 070621000N5651  A8090000000000000000000000  0 0000   0000000000180 40E00CUMBRES                                       2                            00000001747600180       21139000001735420005033961989909166   MS0000008529042CV0000051200092001 202104221554100000000476018                                                                          100900                          0000000                                     DS                                                                                                              B00051S93101                                                                                               00000000                                                                                                                                                                                                                       216    kNJLtQa+Iws8AREAEbjsA1MAAAAA2f38e6948-5388-41a6-bca4b49723c194372                                                                                                                                                                                                                                                                                                                       216CT6                                                                                                                                                                                                                                                                                                                                                                                                                                                                                                                   *
D08200190001747601000000 0005190521503396198990916600469953200000000000003057529900000000701905211905211822042100003432000024400000ARP000000000003500ARP0AR0000000000035002308450000000000009  0000000   00000I  000000000000000000004400 00000000000000 070621000N5651  A8090000000000000000000000  0 0000   0000000000180 40E00CUMBRES                                       2                            00000001747600180       21139000001735420005033961989909166   MS0000008530042CV0000051200092001 202104221554580000000476018                                                                          100900                          0000000                                     DS                                                                                                              B00051S93101                                                                                               00000000                                                                                                                                                                                                                       217    kOJLtQa+Iws8AREAEbjsA1MAAAAA2f38e6948-5388-41a6-bca4b49723c194372                                                                                                                                                                                                                                                                                                                       217CT6                                                                                                                                                                                                                                                                                                                                                                                                                                                                                                                   *
D08200190001747601000000 0005190521520491021000000900469953200000000000003057529900000000701905211905211822042100006372000024250000ARP000000000003500ARP0AR0000000000035002308450000000000009  0000000   00000I  000000000000000000004400 00000000000000 070621000N5651  A8090000000000000000000000  0 0000   0000000000180 40100CUMBRES                                       2                            00000001747600180       21139000001735420005204910210000009   MCC01110X0422  CV0000051200092001 202104221533490000000476018                                                                          100900                          0000000                                     DS                                                                                                              B00051S93101                                                                                               00000000                                                                                                                                                                                                                       210    hJJLtQa+Iws8AREAEbjsA1MAAAAA1f38e6948-5388-41a6-bca4b49723c194372                                                                                                                                                                                                                                                                                                                       210CT6                                                                                                                                                                                                                                                                                                                                                                                                                                                                                                                   *
D08200190001747601000000 0005190521520491021000000900469953200000000000003057529900000000701905211905211822042100006373000024260000ARP000000000003500ARP0AR0000000000035002308450000000000009  0000000   00000I  000000000000000000004400 00000000000000 070621000N5651  A8090000000000000000000000  0 0000   0000000000180 40100CUMBRES                                       2                            00000001747600180       21139000001735420005204910210000009   MCC01110Y0422  CV0000051200092001 202104221535020000000476018                                                                          100900                          0000000                                     DS                                                                                                              B00051S93101                                                                                               00000000                                                                                                                                                                                                                       211    hJJLtQa+Iws8AREAEbjsA1MAAAAA1f38e6948-5388-41a6-bca4b49723c194372                                                                                                                                                                                                                                                                                                                       211CT6                                                                                                                                                                                                                                                                                                                                                                                                                                                                                                                   *
D08200190001747601000000 0005190521520491021000000900469953200000000000003057529900000000701905211905211822042100006374000024270000ARP000000000003500ARP0AR0000000000035002308450000000000009  0000000   00000I  000000000000000000004400 00000000000000 070621000N5651  A8090000000000000000000000  0 0000   0000000000180 40100CUMBRES                                       2                            00000001747600180       21139000001735420005204910210000009   MCC01110Z0422  CV0000051200092001 202104221535420000000476018                                                                          100900                          0000000                                     DS                                                                                                              B00051S93101                                                                                               00000000                                                                                                                                                                                                                       212    jJJLtQa+Iws8AREAEbjsA1MAAAAA1f38e6948-5388-41a6-bca4b49723c194372                                                                                                                                                                                                                                                                                                                       212CT6                                                                                                                                                                                                                                                                                                                                                                                                                                                                                                                   *
D08200190001747601000000 0005190521520491021000000900469953200000000000003057529900000000701905211905211822042100006375000024280000ARP000000000003500ARP0AR0000000000035002308450000000000009  0000000   00000I  000000000000000000004400 00000000000000 070621000N5651  A8090000000000000000000000  0 0000   0000000000180 40100CUMBRES                                       2                            00000001747600180       21139000001735420005204910210000009   MCC0111100422  CV0000051200092001 202104221536210000000476018                                                                          100900                          0000000                                     DS                                                                                                              B00051S93101                                                                                               00000000                                                                                                                                                                                                                       211    kEJLtQa+Iws8AREAEbjsA1MAAAAA2f38e6948-5388-41a6-bca4b49723c194372                                                                                                                                                                                                                                                                                                                       211CT6                                                                                                                                                                                                                                                                                                                                                                                                                                                                                                                   *
D08200190001747601000000 0005190521520491021000000900469953200000000000003057529900000000701905211905211822042100006376000024290000ARP000000000003500ARP0AR0000000000035002308450000000000009  0000000   00000I  000000000000000000004400 00000000000000 070621000N5651  A8090000000000000000000000  0 0000   0000000000180 40100CUMBRES                                       2                            00000001747600180       21139000001735420005204910210000009   MCC0111110422  CV0000051200092001 202104221537010000000476018                                                                          100900                          0000000                                     DS                                                                                                              B00051S93101                                                                                               00000000                                                                                                                                                                                                                       212    kAJLtQa+Iws8AREAEbjsA1MAAAAA2f38e6948-5388-41a6-bca4b49723c194372                                                                                                                                                                                                                                                                                                                       212CT6                                                                                                                                                                                                                                                                                                                                                                                                                                                                                                                   *
D08200190001747601000000 0005190521520491021000000900469953200000000000003057529900000000701905211905211822042100006377000024300000ARP000000000003500ARP0AR0000000000035002308450000000000009  0000000   00000I  000000000000000000004400 00000000000000 070621000N5651  A8090000000000000000000000  0 0000   0000000000180 40100CUMBRES                                       2                            00000001747600180       21139000001735420005204910210000009   MCC0111120422  CV0000051200092001 202104221537410000000476018                                                                          100900                          0000000                                     DS                                                                                                              B00051S93101                                                                                               00000000                                                                                                                                                                                                                       214    jJJLtQa+Iws8AREAEbjsA1MAAAAA2f38e6948-5388-41a6-bca4b49723c194372                                                                                                                                                                                                                                                                                                                       214CT6                                                                                                                                                                                                                                                                                                                                                                                                                                                                                                                   *
D08200190001747601000000 0005190521520491021000000900469953200000000000003057529900000000701905211905211822042100006378000024310000ARP000000000003500ARP0AR0000000000035002308450000000000009  0000000   00000I  000000000000000000004400 00000000000000 070621000N5651  A8090000000000000000000000  0 0000   0000000000180 40100CUMBRES                                       2                            00000001747600180       21139000001735420005204910210000009   MCC0111130422  CV0000051200092001 202104221538210000000476018                                                                          100900                          0000000                                     DS                                                                                                              B00051S93101                                                                                               00000000                                                                                                                                                                                                                       216    kNJLtQa+Iws8AREAEbjsA1MAAAAA2f38e6948-5388-41a6-bca4b49723c194372                                                                                                                                                                                                                                                                                                                       216CT6                                                                                                                                                                                                                                                                                                                                                                                                                                                                                                                   *
D08200190001747601000000 0005190521520491021000000900469953200000000000003057529900000000701905211905211822042100006379000024320000ARP000000000003500ARP0AR0000000000035002308450000000000009  0000000   00000I  000000000000000000004400 00000000000000 070621000N5651  A8090000000000000000000000  0 0000   0000000000180 40100CUMBRES                                       2                            00000001747600180       21139000001735420005204910210000009   MCC0111140422  CV0000051200092001 202104221539050000000476018                                                                          100900                          0000000                                     DS                                                                                                              B00051S93101                                                                                               00000000                                                                                                                                                                                                                       217    kOJLtQa+Iws8AREAEbjsA1MAAAAA2f38e6948-5388-41a6-bca4b49723c194372                                                                                                                                                                                                                                                                                                                       217CT6                                                                                                                                                                                                                                                                                                                                                                                                                                                                                                                   *
T00000018000000000064888                                                                                                                                                                                                                                                                                                                                                                                                                                                                                                                                                                                                                                                                                                                                                                                                                                                                                                                                                                                                                                                                                                                                                                                                                                                                                                                                                                                                                                                                                                                                                                                                                                                                                                                                                                                                                                                                                                                                                                                                                                                       *
