H200020201005154659                                                                                                                                                                                                                                                                                                                                                                                                                                                                                                                                                                                                                                                                                                                                                                                                                                                                                                                                                                                                                                                                                                                                                                                                                                                                                                                                                                                                                                                                                                                                                                                                                                                                                                                                                                                                                                                                                                                                                                                                                                                            *
D08200190005901501000000 0005051020459354000389666900032556270000000000000952779100000000010510200510201802102000907042000008360000ARP0000000000210010000AR0000000000210014565830000000000009  0000000   00000I  000000000000000000003280 00000000000000 23102000004131  E9060900000000000000000000  0 0000   0000000000200  0100FLECHA BUS                                    2                            00700005901500200       20279000001546590004593540003896669   309009648020001CV0000054862018290 202010021331500000000015018                N                                                         900900                          0000000                                     DS                                                                                                              200101254101                                                                                               00000000                                                                                                                                                                   V                                                                                                                                                                                                                                                                                                                                                                                                                                                                                                                                                                                                                                                                                                                                                                                                                                                                                                                                                                           *
D08200190005901501000000 0005051020459354000389666900032556270000000000000952779100000000010510200510201802102000235762000008370000ARP0000000000210010000AR0000000000210014565830000000000009  0000000   00000I  000000000000000000003280 00000000000000 23102000004131  E9060900000000000000000000  0 0000   0000000000200  0100FLECHA BUS                                    2                            00700005901500200       20279000001546590004593540003896669   309009648020001CV0000054862018290 202010021338450000000015018                N                                                         900900                          0000000                                     DS                                                                                                              200101254101                                                                                               00000000                                                                                                                                                                   2                                                                                                                                                                                                                                                                                                                                                                                                                                                                                                                                                                                                                                                                                                                                                                                                                                                                                                                                                                           *
D08200190005901501000000 0005051020459354000389666900032556270000000000000952779100000000010510200510201802102000125870000008380000ARP0000000000210010000AR0000000000210014565830000000000009  0000000   00000I  000000000000000000003280 00000000000000 23102000004131  E9060900000000000000000000  0 0000   0000000000200  0100FLECHA BUS                                    2                            00700005901500200       20279000001546590004593540003896669   309009648020001CV0000054862018290 202010021339500000000015018                N                                                         900900                          0000000                                     DS                                                                                                              200101254101                                                                                               00000000                                                                                                                                                                   0                                                                                                                                                                                                                                                                                                                                                                                                                                                                                                                                                                                                                                                                                                                                                                                                                                                                                                                                                                           *
D08200190005901501000000 0005051020459354000389666900032556270000000000000952779100000000010510200510201802102000957145000008390000ARP0000000000210010000AR0000000000210014565830000000000009  0000000   00000I  000000000000000000003280 00000000000000 23102000004131  E9060900000000000000000000  0 0000   0000000000200  0100FLECHA BUS                                    2                            00700005901500200       20279000001546590004593540003896669   309009648020001CV0000054862018290 202010021340010000000015018                N                                                         900900                          0000000                                     DS                                                                                                              200101254101                                                                                               00000000                                                                                                                                                                   1                                                                                                                                                                                                                                                                                                                                                                                                                                                                                                                                                                                                                                                                                                                                                                                                                                                                                                                                                                           *
D08200190005901501000000 0005051020459354000389666900032556270000000000000952779100000000010510200510201802102000568953000008400000ARP0000000000210010000AR0000000000210014565830000000000009  0000000   00000I  000000000000000000003280 00000000000000 23102000004131  E9060900000000000000000000  0 0000   0000000000200  0100FLECHA BUS                                    2                            00700005901500200       20279000001546590004593540003896669   309009648020001CV0000054862018290 202010021340230000000015018                N                                                         900900                          0000000                                     DS                                                                                                              200101254101                                                                                               00000000                                                                                                                                                                   4                                                                                                                                                                                                                                                                                                                                                                                                                                                                                                                                                                                                                                                                                                                                                                                                                                                                                                                                                                           *
D08200190005901501000000 0005051020459354000389666900032556270000000000000952779100000000010510200510201802102000821193000008410000ARP0000000000210010000AR0000000000210014565830000000000009  0000000   00000I  000000000000000000003280 00000000000000 23102000004131  E9060900000000000000000000  0 0000   0000000000200  0100FLECHA BUS                                    2                            00700005901500200       20279000001546590004593540003896669   309009648020001CV0000054862018290 202010021340350000000015018                N                                                         900900                          0000000                                     DS                                                                                                              200101254101                                                                                               00000000                                                                                                                                                                   5                                                                                                                                                                                                                                                                                                                                                                                                                                                                                                                                                                                                                                                                                                                                                                                                                                                                                                                                                                           *
D08200190005901501000000 0005051020459354000389666900032556270000000000000952779100000000010510200510201802102000367703000008420000ARP0000000000100110000AR0000000000100114565830000000000009  0000000   00000I  000000000000000000003280 00000000000000 23102000004131  E9060900000000000000000000  0 0000   0000000000200  0100FLECHA BUS                                    2                            00700005901500200       20279000001546590004593540003896669   309009648020001CV0000054862018290 202010021345280000000015018                N                                                         900900                          0000000                                     DS                                                                                                              200101254101                                                                                               00000000                                                                                                                                                                   7                                                                                                                                                                                                                                                                                                                                                                                                                                                                                                                                                                                                                                                                                                                                                                                                                                                                                                                                                                           *
D08200190005901501000000 0005051020459354000389666900032556270000000000000952779100000000010510200510201802102000210788000008430000ARP0000000000100120000AR0000000000100124565830000000000009  0000000   00000I  000000000000000000003280 00000000000000 23102000004131  E9060900000000000000000000  0 0000   0000000000200  0100FLECHA BUS                                    2                            00700005901500200       20279000001546590004593540003896669   309009648020001CV0000054862018290 202010021345440000000015018                N                                                         900900                          0000000                                     DS                                                                                                              200101254101                                                                                               00000000                                                                                                                                                                   8                                                                                                                                                                                                                                                                                                                                                                                                                                                                                                                                                                                                                                                                                                                                                                                                                                                                                                                                                                           *
D08200190005901501000000 0005051020459354000389666900032556270000000000000952779100000000010510200510201802102000505166000008450000ARP0000000000100140000AR0000000000100144565830000000000009  0000000   00000I  000000000000000000003280 00000000000000 23102000004131  E9060900000000000000000000  0 0000   0000000000200  0100FLECHA BUS                                    2                            00700005901500200       20279000001546590004593540003896669   309009648020001CV0000054862018290 202010021346160000000015018                N                                                         900900                          0000000                                     DS                                                                                                              200101254101                                                                                               00000000                                                                                                                                                                   C                                                                                                                                                                                                                                                                                                                                                                                                                                                                                                                                                                                                                                                                                                                                                                                                                                                                                                                                                                           *
D08200190005901501000000 0005051020459354000389666900032556270000000000000952779100000000010510200510201802102000009981000008460000ARP0000000000100150000AR0000000000100154565830000000000009  0000000   00000I  000000000000000000003280 00000000000000 23102000004131  E9060900000000000000000000  0 0000   0000000000200  0100FLECHA BUS                                    2                            00700005901500200       20279000001546590004593540003896669   309009648020001CV0000054862018290 202010021348060000000015018                N                                                         900900                          0000000                                     DS                                                                                                              200101254101                                                                                               00000000                                                                                                                                                                   B                                                                                                                                                                                                                                                                                                                                                                                                                                                                                                                                                                                                                                                                                                                                                                                                                                                                                                                                                                           *
T00000010000000000166058                                                                                                                                                                                                                                                                                                                                                                                                                                                                                                                                                                                                                                                                                                                                                                                                                                                                                                                                                                                                                                                                                                                                                                                                                                                                                                                                                                                                                                                                                                                                                                                                                                                                                                                                                                                                                                                                                                                                                                                                                                                       *
D08200190001553801000000 0005271020455136294000001000175180690000000000001483475700000000010000002710201815052000327725000000920000ARP000000000001848000 AR0000000000000004546570000000000009  0000000   00000I  000000000000000000000000 00000000000000 0000000008822000C1060900000000000000000000  0 0201027 000000000090  0E00WWW.UCES.EDU.AR                               M                            00700001553800090       2030100000085457 004551362940000010   VI2030100000792  0000051200083201 202005151541070000000538018                S4551362940000010                                         900900                          0000000                                     DS                                                                                                              10018168C101                                                                                               00000000                                                                                                                                                                                                                                                                                                                                                                                                                                                                                                                                                                                                                                                                                                                                                                                                                                                                                                                                                                                                                                                                                                                                               *
D08200190001553801000000 0005271020489537001279268200175180690000000000001483475700000000010000002710201815052000027356000000890000ARP000000000002000000 AR0000000000000004546570000000000009  0000000   00000I  000000000000000000000000 00000000000000 0000000008822000C1060900000000000000000000  0 0201027 000000000090  0E00WWW.UCES.EDU.AR                               M                            00700001553800090       2030100000085457 004895370012792682   300136656017042  0000051200083201 202005151513190000000538018                S4895370012792682                                         900900                          0000000                                     DS                                                                                                              200181684101                                                                                               00000000                                                                                                                                                                                                                                                                                                                                                                                                                                                                                                                                                                                                                                                                                                                                                                                                                                                                                                                                                                                                                                                                                                                                               *
T00000002000000000003848                                                                                                                                                                                                                                                                                                                                                                                                                                                                                                                                                                                                                                                                                                                                                                                                                                                                                                                                                                                                                                                                                                                                                                                                                                                                                                                                                                                                                                                                                                                                                                                                                                                                                                                                                                                                                                                                                                                                                                                                                                                       *
H200020201027085456                                                                                                                                                                                                                                                                                                                                                                                                                                                                                                                                                                                                                                                                                                                                                                                                                                                                                                                                                                                                                                                                                                                                                                                                                                                                                                                                                                                                                                                                                                                                                                                                                                                                                                                                                                                                                                                                                                                                                                                                                                                            *
D08200190005901501000000 0005271020459354000383666500032556270000000000000952779100000000012710202710201822092000006817000011700000ARP0000000000255220000AR0000000000255224565830000000000009  0000000   00000I  000000000000000000003280 00000000000000 1611200000413103E9060900000000000000000000 E0 0000   0000000000200  0100FLECHA BUS                                    2                            00700005901500200E      20301000000854560004593540003836665   300266543530607CV0000054862018290 202009221206030000000015018                N                                                         900900                          0000000                                     DS                                                                                                              500101254101                                                                                               00000000                                                                                                                                                                                                                                                                                                                                                                                                                                                                                                                                                                                                                                                                                                                                                                                                                                                                                                                                                                                                                                                                                                                                               *
D08200190090000001000000 0005271020459354000383666500036593070000000000000742261500000000012710202710200208042000091140000008290000ARP0000000000070000000AR0000000000070004507990000000000009  0000000   00000I  000000000000000000001036 00000000000000 29102000005943  C1000900000000000000000000  0 0000   0000000000200  0100VISA $                                        2                            00700090000000200       20301000000854560004593540003836665   300099515713494CV0000051200018990 202004081119300000000000002                N                                                         900900                          0000000                                     DS                                                                                                              200101254101                                                                                               00000000                                                                                                                                                                                                                                                                                                                                                                                                                                                                                                                                                                                                                                                                                                                                                                                                                                                                                                                                                                                                                                                                                                                                               *
D08200190090000001000000 0005271020459354000383666500036593070000000000000742261500000000012710202710200208042000087771000008350000ARP0000000000075000000AR0000000000075004507990000000000009  0000000   00000I  000000000000000000001036 00000000000000 29102000005943  C1000900000000000000000000  0 0000   0000000000200  0100VISA $                                        2                            00700090000000200       20301000000854560004593540003836665   300099584027126CV0000051200018990 202004081313210000000000002                N                                                         900900                          0000000                                     DS                                                                                                              200101254101                                                                                               00000000                                                                                                                                                                                                                                                                                                                                                                                                                                                                                                                                                                                                                                                                                                                                                                                                                                                                                                                                                                                                                                                                                                                                               *
D08200190090000001000000 0005271020412322000000022200036593070000000000000742261500000000012710202710200215052000500978000000970000ARP0000000000015000000AR0000000000015004507990000000000009  0000000   00000I  000000000000000000001036 00000000000000 29102000005943  C1000900000000000000000000  0 0000   0000000000200 80100VISA $                                        E                            99800090000000200       20301000000854560004123220000000222   VI2030100000790CV0000051200083207 202005151600310000000000002                S4123220000000222                                         900900                          0000000                                     DN                                                                                                              M00101M54101                                                                                               00000000                                                                                                                                                                                                                                                                                                                                                                                                                                                                                                                                                                                                                            0000706010A03A0  00                                0000013273B5199981E30AAE00322005150000000015000032000000000000                  0000000000  000EB028161E0000606008                                                                                                                                                                                                                                                                                                                                              *
D08200190090000001000000 0005271020450980000061226800036593070000000000000742261500000000012710202710200203042000003452000005040000ARP0000000000299020000AR0000000000299024507990000000000009  0000000   00000I  000000000000000000001036 00000000000000 29102000005943  C1000900000000000000000000  0 0000   0000000000200  0100VISA $                                        2                            07200090000000200       20301000000854560004509800000612268   300094579889986CV0000054862018290 202004031306260000000000002                N                                                         900900                          0000000                                     DS                                                                                                              200101254101                                                                                               00000000                                                                                                                                                                                                                                                                                                                                                                                                                                                                                                                                                                                                                                                                                                                                                                                                                                                                                                                                                                                                                                                                                                                                               *
D08200190090000001000000 0005271020478204100000000000036593070000000000000742261500000000012710202710200203042000066838000004890000ARP0000000000299000000AR0000000000299004507990000000000009  0000000   00000I  000000000000000000001036 00000000000000 29102000005943  C1000900000000000000000000  0 0000   0000000000200 80100VISA $                                        2                            99800090000000200       20301000000854560004782041000000000   300094574317846CV0000054862018290 202004031257080000000000002                N                                                         900900                          0000000                                     DN                                                                                                              200101254101                                                                                               00000000                                                                                                                                                                                                                                                                                                                                                                                                                                                                                                                                                                                                                            000                                                  00                                              000000000000                                                                                                                                                                                                                                                                                                                                                                                                  *
D08200190090000001000000 0005271020478204100000000000036593070000000000000742261500000000012710202710200203042000052764000004900000ARP0000000000203000000AR0000000000203004507990000000000009  0000000   00000I  000000000000000000001036 00000000000000 2910200000594303C1000900000000000000000000 E0 0000   0000000000200 80100VISA $                                        2                            99800090000000200E      20301000000854560004782041000000000   300094574317847CV0000054862018290 202004031257080000000000002                N                                                         900900                          0000000                                     DN                                                                                                              200101254101                                                                                               00000000                                                                                                                                                                                                                                                                                                                                                                                                                                                                                                                                                                                                                            000                                                  00                                              000000000000                                                                                                                                                                                                                                                                                                                                                                                                  *


