H200020201005154659                                                                                                                                                                                                                                                                                                                                                                                                                                                                                                                                                                                                                                                                                                                                                                                                                                                                                                                                                                                                                                                                                                                                                                                                                                                                                                                                                                                                                                                                                                                                                                                                                                                                                                                                                                                                                                                                                                                                                                                                                                                            *
D08200190005901501000000 0005051020459354000389666900032556270000000000000952779100000000010510200510201802102000907042000008360000ARP0000000000210010000AR0000000000210014565830000000000009  0000000   00000I  000000000000000000003280 00000000000000 23102000004131  E9060900000000000000000000  0 0000   0000000000200  0E00FLECHA BUS                                    2                            99800005901500200       20279000001546590004593540003896669   309009648020001CV0000054862018290 202010021331500000000015018                N                                                        7900900                          0000000                                     DS                                                                                                              200101254101                                                                                               00000000                                                                                                                                                                   V                                                                                                                                                                                                                                                                                                                                                                                                                                                                                                                                                                                                                                                                                                                                                                                                                                                                                                                                                                           *
D08200190005901501000000 0005051020459354000389666900032556270000000000000952779100000000010510200510201802102000235762000008370000ARP0000000000210010000AR0000000000210014565830000000000009  0000000   00000I  000000000000000000003280 00000000000000 23102000004131  E9060900000000000000000000  0 0000   0000000000200  0E00FLECHA BUS                                    2                            99800005901500200       20279000001546590004593540003896669   309009648020001CV0000054862018290 202010021338450000000015018                N                                                        7900900                          0000000                                     DS                                                                                                              200101254101                                                                                               00000000                                                                                                                                                                   2                                                                                                                                                                                                                                                                                                                                                                                                                                                                                                                                                                                                                                                                                                                                                                                                                                                                                                                                                                           *
D08200190005901501000000 0005051020459354000389666900032556270000000000000952779100000000010510200510201802102000125870000008380000ARP0000000000210010000AR0000000000210014565830000000000009  0000000   00000I  000000000000000000003280 00000000000000 23102000004131  E9060900000000000000000000  0 0000   0000000000200  0E00FLECHA BUS                                    2                            99800005901500200       20279000001546590004593540003896669   309009648020001CV0000054862018290 202010021339500000000015018                N                                                        7900900                          0000000                                     DS                                                                                                              200101254101                                                                                               00000000                                                                                                                                                                   0                                                                                                                                                                                                                                                                                                                                                                                                                                                                                                                                                                                                                                                                                                                                                                                                                                                                                                                                                                           *
D08200190005901501000000 0005051020459354000389666900032556270000000000000952779100000000010510200510201802102000957145000008390000ARP0000000000210010000AR0000000000210014565830000000000009  0000000   00000I  000000000000000000003280 00000000000000 23102000004131  E9060900000000000000000000  0 0000   0000000000200  0E00FLECHA BUS                                    2                            99800005901500200       20279000001546590004593540003896669   309009648020001CV0000054862018290 202010021340010000000015018                N                                                        7900900                          0000000                                     DS                                                                                                              200101254101                                                                                               00000000                                                                                                                                                                   1                                                                                                                                                                                                                                                                                                                                                                                                                                                                                                                                                                                                                                                                                                                                                                                                                                                                                                                                                                           *
D08200190005901501000000 0005051020459354000389666900032556270000000000000952779100000000010510200510201802102000568953000008400000ARP0000000000210010000AR0000000000210014565830000000000009  0000000   00000I  000000000000000000003280 00000000000000 23102000004131  E9060900000000000000000000  0 0000   0000000000200  0E00FLECHA BUS                                    2                            00700005901500200       20279000001546590004593540003896669   309009648020001CV0000054862018290 202010021340230000000015018                N                                                        7900900                          0000000                                     DS                                                                                                              200101254101                                                                                               00000000                                                                                                                                                                   4                                                                                                                                                                                                                                                                                                                                                                                                                                                                                                                                                                                                                                                                                                                                                                                                                                                                                                                                                                           *
D08200190005901501000000 0005051020459354000389666900032556270000000000000952779100000000010510200510201802102000821193000008410000ARP0000000000210010000AR0000000000210014565830000000000009  0000000   00000I  000000000000000000003280 00000000000000 23102000004131  E9060900000000000000000000  0 0000   0000000000200  0100FLECHA BUS                                    2                            00700005901500200       20279000001546590004593540003896669   309009648020001CV0000054862018290 202010021340350000000015018                N                                                        7900900                          0000000                                     DS                                                                                                              200101254101                                                                                               00000000                                                                                                                                                                   5                                                                                                                                                                                                                                                                                                                                                                                                                                                                                                                                                                                                                                                                                                                                                                                                                                                                                                                                                                           *
D08200190005901501000000 0005051020459354000389666900032556270000000000000952779100000000010510200510201802102000367703000008420000ARP0000000000100110000AR0000000000100114565830000000000009  0000000   00000I  000000000000000000003280 00000000000000 23102000004131  E9060900000000000000000000  0 0000   0000000000200  0100FLECHA BUS                                    2                            00700005901500200       20279000001546590004593540003896669   309009648020001CV0000054862018290 202010021345280000000015018                N                                                         900900                          0000000                                     DS                                                                                                              200101254101                                                                                               00000000                                                                                                                                                                   7                                                                                                                                                                                                                                                                                                                                                                                                                                                                                                                                                                                                                                                                                                                                                                                                                                                                                                                                                                           *
D08200190005901501000000 0005051020459354000389666900032556270000000000000952779100000000010510200510201802102000210788000008430000ARP0000000000100120000AR0000000000100124565830000000000009  0000000   00000I  000000000000000000003280 00000000000000 23102000004131  E9060900000000000000000000  0 0000   0000000000200  0100FLECHA BUS                                    2                            00700005901500200       20279000001546590004593540003896669   309009648020001CV0000054862018290 202010021345440000000015018                N                                                         900900                          0000000                                     DS                                                                                                              200101254101                                                                                               00000000                                                                                                                                                                   8                                                                                                                                                                                                                                                                                                                                                                                                                                                                                                                                                                                                                                                                                                                                                                                                                                                                                                                                                                           *
D08200190005901501000000 0005051020459354000389666900032556270000000000000952779100000000010510200510201802102000505166000008450000ARP0000000000100140000AR0000000000100144565830000000000009  0000000   00000I  000000000000000000003280 00000000000000 23102000004131  E9060900000000000000000000  0 0000   0000000000200  0100FLECHA BUS                                    2                            00700005901500200       20279000001546590004593540003896669   309009648020001CV0000054862018290 202010021346160000000015018                N                                                         900900                          0000000                                     DS                                                                                                              200101254101                                                                                               00000000                                                                                                                                                                   C                                                                                                                                                                                                                                                                                                                                                                                                                                                                                                                                                                                                                                                                                                                                                                                                                                                                                                                                                                           *
D08200190005901501000000 0005051020459354000389666900032556270000000000000952779100000000010510200510201802102000009981000008460000ARP0000000000100150000AR0000000000100154565830000000000009  0000000   00000I  000000000000000000003280 00000000000000 23102000004131  E9060900000000000000000000  0 0000   0000000000200  0100FLECHA BUS                                    2                            00700005901500200       20279000001546590004593540003896669   309009648020001CV0000054862018290 202010021348060000000015018                N                                                         900900                          0000000                                     DS                                                                                                              200101254101                                                                                               00000000                                                                                                                                                                   B                                                                                                                                                                                                                                                                                                                                                                                                                                                                                                                                                                                                                                                                                                                                                                                                                                                                                                                                                                           *
T00000010000000000166058                                                                                                                                                                                                                                                                                                                                                                                                                                                                                                                                                                                                                                                                                                                                                                                                                                                                                                                                                                                                                                                                                                                                                                                                                                                                                                                                                                                                                                                                                                                                                                                                                                                                                                                                                                                                                                                                                                                                                                                                                                                       *
